{"abi":[{"type":"constructor","inputs":[{"name":"name","type":"string","internalType":"string"},{"name":"symbol","type":"string","internalType":"string"},{"name":"baseTokenURI","type":"string","internalType":"string"},{"name":"adminPublicKey","type":"bytes32","internalType":"bytes32"}],"stateMutability":"nonpayable"},{"type":"function","name":"approve","inputs":[{"name":"to","type":"address","internalType":"address"},{"name":"tokenId","type":"uint256","internalType":"uint256"}],"outputs":[],"stateMutability":"nonpayable"},{"type":"function","name":"balanceOf","inputs":[{"name":"owner","type":"address","internalType":"address"}],"outputs":[{"name":"","type":"uint256","internalType":"uint256"}],"stateMutability":"view"},{"type":"function","name":"getApproved","inputs":[{"name":"tokenId","type":"uint256","internalType":"uint256"}],"outputs":[{"name":"","type":"address","internalType":"address"}],"stateMutability":"view"},{"type":"function","name":"getKey","inputs":[],"outputs":[{"name":"","type":"bytes","internalType":"bytes"}],"stateMutability":"view"},{"type":"function","name":"getKeyDebug","inputs":[{"name":"publicKey","type":"bytes32","internalType":"bytes32"}],"outputs":[{"name":"","type":"bytes","internalType":"bytes"}],"stateMutability":"view"},{"type":"function","name":"getKeyWithChallenge","inputs":[{"name":"challenge","type":"tuple","internalType":"struct Euint32","components":[{"name":"ctHash","type":"uint256","internalType":"uint256"},{"name":"securityZone","type":"uint8","internalType":"uint8"},{"name":"utype","type":"uint8","internalType":"uint8"},{"name":"signature","type":"bytes","internalType":"bytes"}]}],"outputs":[{"name":"","type":"bytes","internalType":"bytes"}],"stateMutability":"nonpayable"},{"type":"function","name":"isApprovedForAll","inputs":[{"name":"owner","type":"address","internalType":"address"},{"name":"operator","type":"address","internalType":"address"}],"outputs":[{"name":"","type":"bool","internalType":"bool"}],"stateMutability":"view"},{"type":"function","name":"mintNft","inputs":[{"name":"to","type":"address","internalType":"address"},{"name":"tokenId","type":"uint256","internalType":"uint256"}],"outputs":[{"name":"","type":"uint256","internalType":"uint256"}],"stateMutability":"nonpayable"},{"type":"function","name":"name","inputs":[],"outputs":[{"name":"","type":"string","internalType":"string"}],"stateMutability":"view"},{"type":"function","name":"ownerOf","inputs":[{"name":"tokenId","type":"uint256","internalType":"uint256"}],"outputs":[{"name":"","type":"address","internalType":"address"}],"stateMutability":"view"},{"type":"function","name":"safeTransferFrom","inputs":[{"name":"from","type":"address","internalType":"address"},{"name":"to","type":"address","internalType":"address"},{"name":"tokenId","type":"uint256","internalType":"uint256"}],"outputs":[],"stateMutability":"nonpayable"},{"type":"function","name":"safeTransferFrom","inputs":[{"name":"from","type":"address","internalType":"address"},{"name":"to","type":"address","internalType":"address"},{"name":"tokenId","type":"uint256","internalType":"uint256"},{"name":"data","type":"bytes","internalType":"bytes"}],"outputs":[],"stateMutability":"nonpayable"},{"type":"function","name":"setApprovalForAll","inputs":[{"name":"operator","type":"address","internalType":"address"},{"name":"approved","type":"bool","internalType":"bool"}],"outputs":[],"stateMutability":"nonpayable"},{"type":"function","name":"setPrivateKey","inputs":[{"name":"k1","type":"tuple","internalType":"struct Euint32","components":[{"name":"ctHash","type":"uint256","internalType":"uint256"},{"name":"securityZone","type":"uint8","internalType":"uint8"},{"name":"utype","type":"uint8","internalType":"uint8"},{"name":"signature","type":"bytes","internalType":"bytes"}]}],"outputs":[],"stateMutability":"nonpayable"},{"type":"function","name":"supportsInterface","inputs":[{"name":"interfaceId","type":"bytes4","internalType":"bytes4"}],"outputs":[{"name":"","type":"bool","internalType":"bool"}],"stateMutability":"view"},{"type":"function","name":"symbol","inputs":[],"outputs":[{"name":"","type":"string","internalType":"string"}],"stateMutability":"view"},{"type":"function","name":"tokenURI","inputs":[{"name":"tokenId","type":"uint256","internalType":"uint256"}],"outputs":[{"name":"","type":"string","internalType":"string"}],"stateMutability":"view"},{"type":"function","name":"transferFrom","inputs":[{"name":"from","type":"address","internalType":"address"},{"name":"to","type":"address","internalType":"address"},{"name":"tokenId","type":"uint256","internalType":"uint256"}],"outputs":[],"stateMutability":"nonpayable"},{"type":"event","name":"Approval","inputs":[{"name":"owner","type":"address","indexed":true,"internalType":"address"},{"name":"approved","type":"address","indexed":true,"internalType":"address"},{"name":"tokenId","type":"uint256","indexed":true,"internalType":"uint256"}],"anonymous":false},{"type":"event","name":"ApprovalForAll","inputs":[{"name":"owner","type":"address","indexed":true,"internalType":"address"},{"name":"operator","type":"address","indexed":true,"internalType":"address"},{"name":"approved","type":"bool","indexed":false,"internalType":"bool"}],"anonymous":false},{"type":"event","name":"Transfer","inputs":[{"name":"from","type":"address","indexed":true,"internalType":"address"},{"name":"to","type":"address","indexed":true,"internalType":"address"},{"name":"tokenId","type":"uint256","indexed":true,"internalType":"uint256"}],"anonymous":false},{"type":"error","name":"InvalidEncryptedInput","inputs":[{"name":"got","type":"uint8","internalType":"uint8"},{"name":"expected","type":"uint8","internalType":"uint8"}]},{"type":"error","name":"SecurityZoneOutOfBounds","inputs":[{"name":"value","type":"int32","internalType":"int32"}]}],"bytecode":{"object":"0x608060405234801561000f575f5ffd5b50604051613601380380613601833981810160405281019061003191906101f4565b8383815f908161004191906104bc565b50806001908161005191906104bc565b505050816006908161006391906104bc565b50806007819055505050505061058b565b5f604051905090565b5f5ffd5b5f5ffd5b5f5ffd5b5f5ffd5b5f601f19601f8301169050919050565b7f4e487b71000000000000000000000000000000000000000000000000000000005f52604160045260245ffd5b6100d38261008d565b810181811067ffffffffffffffff821117156100f2576100f161009d565b5b80604052505050565b5f610104610074565b905061011082826100ca565b919050565b5f67ffffffffffffffff82111561012f5761012e61009d565b5b6101388261008d565b9050602081019050919050565b8281835e5f83830152505050565b5f61016561016084610115565b6100fb565b90508281526020810184848401111561018157610180610089565b5b61018c848285610145565b509392505050565b5f82601f8301126101a8576101a7610085565b5b81516101b8848260208601610153565b91505092915050565b5f819050919050565b6101d3816101c1565b81146101dd575f5ffd5b50565b5f815190506101ee816101ca565b92915050565b5f5f5f5f6080858703121561020c5761020b61007d565b5b5f85015167ffffffffffffffff81111561022957610228610081565b5b61023587828801610194565b945050602085015167ffffffffffffffff81111561025657610255610081565b5b61026287828801610194565b935050604085015167ffffffffffffffff81111561028357610282610081565b5b61028f87828801610194565b92505060606102a0878288016101e0565b91505092959194509250565b5f81519050919050565b7f4e487b71000000000000000000000000000000000000000000000000000000005f52602260045260245ffd5b5f60028204905060018216806102fa57607f821691505b60208210810361030d5761030c6102b6565b5b50919050565b5f819050815f5260205f209050919050565b5f6020601f8301049050919050565b5f82821b905092915050565b5f6008830261036f7fffffffffffffffffffffffffffffffffffffffffffffffffffffffffffffffff82610334565b6103798683610334565b95508019841693508086168417925050509392505050565b5f819050919050565b5f819050919050565b5f6103bd6103b86103b384610391565b61039a565b610391565b9050919050565b5f819050919050565b6103d6836103a3565b6103ea6103e2826103c4565b848454610340565b825550505050565b5f5f905090565b6104016103f2565b61040c8184846103cd565b505050565b5b8181101561042f576104245f826103f9565b600181019050610412565b5050565b601f8211156104745761044581610313565b61044e84610325565b8101602085101561045d578190505b61047161046985610325565b830182610411565b50505b505050565b5f82821c905092915050565b5f6104945f1984600802610479565b1980831691505092915050565b5f6104ac8383610485565b9150826002028217905092915050565b6104c5826102ac565b67ffffffffffffffff8111156104de576104dd61009d565b5b6104e882546102e3565b6104f3828285610433565b5f60209050601f831160018114610524575f8415610512578287015190505b61051c85826104a1565b865550610583565b601f19841661053286610313565b5f5b8281101561055957848901518255600182019150602085019450602081019050610534565b868310156105765784890151610572601f891682610485565b8355505b6001600288020188555050505b505050505050565b613069806105985f395ff3fe608060405234801561000f575f5ffd5b5060043610610113575f3560e01c806370a08231116100a0578063a22cb4651161006f578063a22cb46514610301578063b88d4fde1461031d578063c87b56dd14610339578063d1194e2b14610369578063e985e9c51461039957610113565b806370a082311461027957806382678dd6146102a95780638a869843146102c757806395d89b41146102e357610113565b8063095c8dd3116100e7578063095c8dd3146101c5578063095ea7b3146101f557806323b872dd1461021157806342842e0e1461022d5780636352211e1461024957610113565b8062dd7d241461011757806301ffc9a71461014757806306fdde0314610177578063081812fc14610195575b5f5ffd5b610131600480360381019061012c9190611e87565b6103c9565b60405161013e9190611f3e565b60405180910390f35b610161600480360381019061015c9190611fb3565b610404565b60405161016e9190611ff8565b60405180910390f35b61017f610415565b60405161018c9190612063565b60405180910390f35b6101af60048036038101906101aa91906120b6565b6104a4565b6040516101bc9190612120565b60405180910390f35b6101df60048036038101906101da919061216c565b6104e6565b6040516101ec9190611f3e565b60405180910390f35b61020f600480360381019061020a91906121c1565b6104fb565b005b61022b600480360381019061022691906121ff565b610611565b005b610247600480360381019061024291906121ff565b610671565b005b610263600480360381019061025e91906120b6565b610690565b6040516102709190612120565b60405180910390f35b610293600480360381019061028e919061224f565b610714565b6040516102a09190612289565b60405180910390f35b6102b16107c8565b6040516102be9190611f3e565b60405180910390f35b6102e160048036038101906102dc9190611e87565b6107dd565b005b6102eb6107f8565b6040516102f89190612063565b60405180910390f35b61031b600480360381019061031691906122cc565b610888565b005b61033760048036038101906103329190612436565b61089e565b005b610353600480360381019061034e91906120b6565b610900565b6040516103609190612063565b60405180910390f35b610383600480360381019061037e91906121c1565b610965565b6040516103909190612289565b60405180910390f35b6103b360048036038101906103ae91906124b6565b610979565b6040516103c09190611ff8565b60405180910390f35b60605f6103de836103d9906125c3565b610a07565b90505f6103ed60085483610a7a565b90506103fb81600754610ac3565b92505050919050565b5f61040e82610af4565b9050919050565b60605f805461042390612602565b80601f016020809104026020016040519081016040528092919081815260200182805461044f90612602565b801561049a5780601f106104715761010080835404028352916020019161049a565b820191905f5260205f20905b81548152906001019060200180831161047d57829003601f168201915b5050505050905090565b5f6104ae82610bd5565b60045f8381526020019081526020015f205f9054906101000a900473ffffffffffffffffffffffffffffffffffffffff169050919050565b60606104f460085483610ac3565b9050919050565b5f61050582610690565b90508073ffffffffffffffffffffffffffffffffffffffff168373ffffffffffffffffffffffffffffffffffffffff1603610575576040517f08c379a000000000000000000000000000000000000000000000000000000000815260040161056c906126a2565b60405180910390fd5b8073ffffffffffffffffffffffffffffffffffffffff16610594610c20565b73ffffffffffffffffffffffffffffffffffffffff1614806105c357506105c2816105bd610c20565b610979565b5b610602576040517f08c379a00000000000000000000000000000000000000000000000000000000081526004016105f990612730565b60405180910390fd5b61060c8383610c27565b505050565b61062261061c610c20565b82610cdd565b610661576040517f08c379a0000000000000000000000000000000000000000000000000000000008152600401610658906127be565b60405180910390fd5b61066c838383610d71565b505050565b61068b83838360405180602001604052805f81525061089e565b505050565b5f5f61069b8361105d565b90505f73ffffffffffffffffffffffffffffffffffffffff168173ffffffffffffffffffffffffffffffffffffffff160361070b576040517f08c379a000000000000000000000000000000000000000000000000000000000815260040161070290612826565b60405180910390fd5b80915050919050565b5f5f73ffffffffffffffffffffffffffffffffffffffff168273ffffffffffffffffffffffffffffffffffffffff1603610783576040517f08c379a000000000000000000000000000000000000000000000000000000000815260040161077a906128b4565b60405180910390fd5b60035f8373ffffffffffffffffffffffffffffffffffffffff1673ffffffffffffffffffffffffffffffffffffffff1681526020019081526020015f20549050919050565b60606107d8600854600754610ac3565b905090565b6107ef816107ea906125c3565b610a07565b60088190555050565b60606001805461080790612602565b80601f016020809104026020016040519081016040528092919081815260200182805461083390612602565b801561087e5780601f106108555761010080835404028352916020019161087e565b820191905f5260205f20905b81548152906001019060200180831161086157829003601f168201915b5050505050905090565b61089a610893610c20565b8383611096565b5050565b6108af6108a9610c20565b83610cdd565b6108ee576040517f08c379a00000000000000000000000000000000000000000000000000000000081526004016108e5906127be565b60405180910390fd5b6108fa848484846111fd565b50505050565b606061090b82610bd5565b5f610914611259565b90505f8151116109325760405180602001604052805f81525061095d565b8061093c846112e9565b60405160200161094d92919061290c565b6040516020818303038152906040525b915050919050565b5f61097083836113b3565b81905092915050565b5f60055f8473ffffffffffffffffffffffffffffffffffffffff1673ffffffffffffffffffffffffffffffffffffffff1681526020019081526020015f205f8373ffffffffffffffffffffffffffffffffffffffff1673ffffffffffffffffffffffffffffffffffffffff1681526020019081526020015f205f9054906101000a900460ff16905092915050565b5f5f600490508060ff16836040015160ff1614610a61578260400151816040517f67cf3071000000000000000000000000000000000000000000000000000000008152600401610a5892919061293e565b60405180910390fd5b610a72610a6d846115c6565b611608565b915050919050565b5f610a848361169f565b610a9457610a915f6116b0565b92505b610a9d8261169f565b610aad57610aaa5f6116b0565b91505b610abb6004848460096116c2565b905092915050565b60605f8390508083604051602001610adc929190612974565b60405160208183030381529060405291505092915050565b5f7f80ac58cd000000000000000000000000000000000000000000000000000000007bffffffffffffffffffffffffffffffffffffffffffffffffffffffff1916827bffffffffffffffffffffffffffffffffffffffffffffffffffffffff19161480610bbe57507f5b5e139f000000000000000000000000000000000000000000000000000000007bffffffffffffffffffffffffffffffffffffffffffffffffffffffff1916827bffffffffffffffffffffffffffffffffffffffffffffffffffffffff1916145b80610bce5750610bcd826117b1565b5b9050919050565b610bde8161181a565b610c1d576040517f08c379a0000000000000000000000000000000000000000000000000000000008152600401610c1490612826565b60405180910390fd5b50565b5f33905090565b8160045f8381526020019081526020015f205f6101000a81548173ffffffffffffffffffffffffffffffffffffffff021916908373ffffffffffffffffffffffffffffffffffffffff160217905550808273ffffffffffffffffffffffffffffffffffffffff16610c9783610690565b73ffffffffffffffffffffffffffffffffffffffff167f8c5be1e5ebec7d5bd14f71427d1e84f3dd0314c0f7b2291e5b200ac8c7c3b92560405160405180910390a45050565b5f5f610ce883610690565b90508073ffffffffffffffffffffffffffffffffffffffff168473ffffffffffffffffffffffffffffffffffffffff161480610d2a5750610d298185610979565b5b80610d6857508373ffffffffffffffffffffffffffffffffffffffff16610d50846104a4565b73ffffffffffffffffffffffffffffffffffffffff16145b91505092915050565b8273ffffffffffffffffffffffffffffffffffffffff16610d9182610690565b73ffffffffffffffffffffffffffffffffffffffff1614610de7576040517f08c379a0000000000000000000000000000000000000000000000000000000008152600401610dde90612a0b565b60405180910390fd5b5f73ffffffffffffffffffffffffffffffffffffffff168273ffffffffffffffffffffffffffffffffffffffff1603610e55576040517f08c379a0000000000000000000000000000000000000000000000000000000008152600401610e4c90612a99565b60405180910390fd5b610e62838383600161185a565b8273ffffffffffffffffffffffffffffffffffffffff16610e8282610690565b73ffffffffffffffffffffffffffffffffffffffff1614610ed8576040517f08c379a0000000000000000000000000000000000000000000000000000000008152600401610ecf90612a0b565b60405180910390fd5b60045f8281526020019081526020015f205f6101000a81549073ffffffffffffffffffffffffffffffffffffffff0219169055600160035f8573ffffffffffffffffffffffffffffffffffffffff1673ffffffffffffffffffffffffffffffffffffffff1681526020019081526020015f205f8282540392505081905550600160035f8473ffffffffffffffffffffffffffffffffffffffff1673ffffffffffffffffffffffffffffffffffffffff1681526020019081526020015f205f82825401925050819055508160025f8381526020019081526020015f205f6101000a81548173ffffffffffffffffffffffffffffffffffffffff021916908373ffffffffffffffffffffffffffffffffffffffff160217905550808273ffffffffffffffffffffffffffffffffffffffff168473ffffffffffffffffffffffffffffffffffffffff167fddf252ad1be2c89b69c2b068fc378daa952ba7f163c4a11628f55a4df523b3ef60405160405180910390a46110588383836001611860565b505050565b5f60025f8381526020019081526020015f205f9054906101000a900473ffffffffffffffffffffffffffffffffffffffff169050919050565b8173ffffffffffffffffffffffffffffffffffffffff168373ffffffffffffffffffffffffffffffffffffffff1603611104576040517f08c379a00000000000000000000000000000000000000000000000000000000081526004016110fb90612b01565b60405180910390fd5b8060055f8573ffffffffffffffffffffffffffffffffffffffff1673ffffffffffffffffffffffffffffffffffffffff1681526020019081526020015f205f8473ffffffffffffffffffffffffffffffffffffffff1673ffffffffffffffffffffffffffffffffffffffff1681526020019081526020015f205f6101000a81548160ff0219169083151502179055508173ffffffffffffffffffffffffffffffffffffffff168373ffffffffffffffffffffffffffffffffffffffff167f17307eab39ab6107e8899845ad3d59bd9653f200f220920489ca2b5937696c31836040516111f09190611ff8565b60405180910390a3505050565b611208848484610d71565b61121484848484611866565b611253576040517f08c379a000000000000000000000000000000000000000000000000000000000815260040161124a90612b8f565b60405180910390fd5b50505050565b60606006805461126890612602565b80601f016020809104026020016040519081016040528092919081815260200182805461129490612602565b80156112df5780601f106112b6576101008083540402835291602001916112df565b820191905f5260205f20905b8154815290600101906020018083116112c257829003601f168201915b5050505050905090565b60605f60016112f7846119e8565b0190505f8167ffffffffffffffff81111561131557611314612312565b5b6040519080825280601f01601f1916602001820160405280156113475781602001600182028036833780820191505090505b5090505f82602001820190505b6001156113a8578080600190039150507f3031323334353637383961626364656600000000000000000000000000000000600a86061a8153600a858161139d5761139c612bad565b5b0494505f8503611354575b819350505050919050565b5f73ffffffffffffffffffffffffffffffffffffffff168273ffffffffffffffffffffffffffffffffffffffff1603611421576040517f08c379a000000000000000000000000000000000000000000000000000000000815260040161141890612c24565b60405180910390fd5b61142a8161181a565b1561146a576040517f08c379a000000000000000000000000000000000000000000000000000000000815260040161146190612c8c565b60405180910390fd5b6114775f8383600161185a565b6114808161181a565b156114c0576040517f08c379a00000000000000000000000000000000000000000000000000000000081526004016114b790612c8c565b60405180910390fd5b600160035f8473ffffffffffffffffffffffffffffffffffffffff1673ffffffffffffffffffffffffffffffffffffffff1681526020019081526020015f205f82825401925050819055508160025f8381526020019081526020015f205f6101000a81548173ffffffffffffffffffffffffffffffffffffffff021916908373ffffffffffffffffffffffffffffffffffffffff160217905550808273ffffffffffffffffffffffffffffffffffffffff165f73ffffffffffffffffffffffffffffffffffffffff167fddf252ad1be2c89b69c2b068fc378daa952ba7f163c4a11628f55a4df523b3ef60405160405180910390a46115c25f83836001611860565b5050565b6115ce611e29565b6040518060800160405280835f01518152602001836020015160ff168152602001600460ff16815260200183606001518152509050919050565b5f73020000000000000000000000000000000000008073ffffffffffffffffffffffffffffffffffffffff166327f9c76283336040518363ffffffff1660e01b8152600401611658929190612d70565b6020604051808303815f875af1158015611674573d5f5f3e3d5ffd5b505050506040513d601f19601f820116820180604052508101906116989190612db2565b9050919050565b5f6116a982611b39565b9050919050565b5f6116bb825f611b45565b9050919050565b5f73020000000000000000000000000000000000008073ffffffffffffffffffffffffffffffffffffffff16631888debd86846116ff8888611b5f565b5f67ffffffffffffffff81111561171957611718612312565b5b6040519080825280602002602001820160405280156117475781602001602082028036833780820191505090505b506040518563ffffffff1660e01b81526004016117679493929190612ef8565b6020604051808303815f875af1158015611783573d5f5f3e3d5ffd5b505050506040513d601f19601f820116820180604052508101906117a79190612db2565b9050949350505050565b5f7f01ffc9a7000000000000000000000000000000000000000000000000000000007bffffffffffffffffffffffffffffffffffffffffffffffffffffffff1916827bffffffffffffffffffffffffffffffffffffffffffffffffffffffff1916149050919050565b5f5f73ffffffffffffffffffffffffffffffffffffffff1661183b8361105d565b73ffffffffffffffffffffffffffffffffffffffff1614159050919050565b50505050565b50505050565b5f6118868473ffffffffffffffffffffffffffffffffffffffff16611bf9565b156119db578373ffffffffffffffffffffffffffffffffffffffff1663150b7a026118af610c20565b8786866040518563ffffffff1660e01b81526004016118d19493929190612f49565b6020604051808303815f875af192505050801561190c57506040513d601f19601f820116820180604052508101906119099190612fa7565b60015b61198b573d805f811461193a576040519150601f19603f3d011682016040523d82523d5f602084013e61193f565b606091505b505f815103611983576040517f08c379a000000000000000000000000000000000000000000000000000000000815260040161197a90612b8f565b60405180910390fd5b805181602001fd5b63150b7a0260e01b7bffffffffffffffffffffffffffffffffffffffffffffffffffffffff1916817bffffffffffffffffffffffffffffffffffffffffffffffffffffffff1916149150506119e0565b600190505b949350505050565b5f5f5f90507a184f03e93ff9f4daa797ed6e38ed64bf6a1f0100000000000000008310611a44577a184f03e93ff9f4daa797ed6e38ed64bf6a1f0100000000000000008381611a3a57611a39612bad565b5b0492506040810190505b6d04ee2d6d415b85acef81000000008310611a81576d04ee2d6d415b85acef81000000008381611a7757611a76612bad565b5b0492506020810190505b662386f26fc100008310611ab057662386f26fc100008381611aa657611aa5612bad565b5b0492506010810190505b6305f5e1008310611ad9576305f5e1008381611acf57611ace612bad565b5b0492506008810190505b6127108310611afe576127108381611af457611af3612bad565b5b0492506004810190505b60648310611b215760648381611b1757611b16612bad565b5b0492506002810190505b600a8310611b30576001810190505b80915050919050565b5f5f8214159050919050565b5f5f611b5384600485611c1b565b90508091505092915050565b60605f600267ffffffffffffffff811115611b7d57611b7c612312565b5b604051908082528060200260200182016040528015611bab5781602001602082028036833780820191505090505b50905083815f81518110611bc257611bc1612fd2565b5b6020026020010181815250508281600181518110611be357611be2612fd2565b5b6020026020010181815250508091505092915050565b5f5f8273ffffffffffffffffffffffffffffffffffffffff163b119050919050565b5f73020000000000000000000000000000000000008073ffffffffffffffffffffffffffffffffffffffff16631888debd84601a5f67ffffffffffffffff811115611c6957611c68612312565b5b604051908082528060200260200182016040528015611c975781602001602082028036833780820191505090505b50611cae898960ff16611ca98a611d16565b611d6d565b6040518563ffffffff1660e01b8152600401611ccd9493929190612ef8565b6020604051808303815f875af1158015611ce9573d5f5f3e3d5ffd5b505050506040513d601f19601f82011682018060405250810190611d0d9190612db2565b90509392505050565b5f5f8260030b1215611d5f57816040517f8f568bf8000000000000000000000000000000000000000000000000000000008152600401611d56919061301a565b60405180910390fd5b8163ffffffff169050919050565b60605f600367ffffffffffffffff811115611d8b57611d8a612312565b5b604051908082528060200260200182016040528015611db95781602001602082028036833780820191505090505b50905084815f81518110611dd057611dcf612fd2565b5b6020026020010181815250508381600181518110611df157611df0612fd2565b5b6020026020010181815250508281600281518110611e1257611e11612fd2565b5b602002602001018181525050809150509392505050565b60405180608001604052805f81526020015f60ff1681526020015f60ff168152602001606081525090565b5f604051905090565b5f5ffd5b5f5ffd5b5f5ffd5b5f60808284031215611e7e57611e7d611e65565b5b81905092915050565b5f60208284031215611e9c57611e9b611e5d565b5b5f82013567ffffffffffffffff811115611eb957611eb8611e61565b5b611ec584828501611e69565b91505092915050565b5f81519050919050565b5f82825260208201905092915050565b8281835e5f83830152505050565b5f601f19601f8301169050919050565b5f611f1082611ece565b611f1a8185611ed8565b9350611f2a818560208601611ee8565b611f3381611ef6565b840191505092915050565b5f6020820190508181035f830152611f568184611f06565b905092915050565b5f7fffffffff0000000000000000000000000000000000000000000000000000000082169050919050565b611f9281611f5e565b8114611f9c575f5ffd5b50565b5f81359050611fad81611f89565b92915050565b5f60208284031215611fc857611fc7611e5d565b5b5f611fd584828501611f9f565b91505092915050565b5f8115159050919050565b611ff281611fde565b82525050565b5f60208201905061200b5f830184611fe9565b92915050565b5f81519050919050565b5f82825260208201905092915050565b5f61203582612011565b61203f818561201b565b935061204f818560208601611ee8565b61205881611ef6565b840191505092915050565b5f6020820190508181035f83015261207b818461202b565b905092915050565b5f819050919050565b61209581612083565b811461209f575f5ffd5b50565b5f813590506120b08161208c565b92915050565b5f602082840312156120cb576120ca611e5d565b5b5f6120d8848285016120a2565b91505092915050565b5f73ffffffffffffffffffffffffffffffffffffffff82169050919050565b5f61210a826120e1565b9050919050565b61211a81612100565b82525050565b5f6020820190506121335f830184612111565b92915050565b5f819050919050565b61214b81612139565b8114612155575f5ffd5b50565b5f8135905061216681612142565b92915050565b5f6020828403121561218157612180611e5d565b5b5f61218e84828501612158565b91505092915050565b6121a081612100565b81146121aa575f5ffd5b50565b5f813590506121bb81612197565b92915050565b5f5f604083850312156121d7576121d6611e5d565b5b5f6121e4858286016121ad565b92505060206121f5858286016120a2565b9150509250929050565b5f5f5f6060848603121561221657612215611e5d565b5b5f612223868287016121ad565b9350506020612234868287016121ad565b9250506040612245868287016120a2565b9150509250925092565b5f6020828403121561226457612263611e5d565b5b5f612271848285016121ad565b91505092915050565b61228381612083565b82525050565b5f60208201905061229c5f83018461227a565b92915050565b6122ab81611fde565b81146122b5575f5ffd5b50565b5f813590506122c6816122a2565b92915050565b5f5f604083850312156122e2576122e1611e5d565b5b5f6122ef858286016121ad565b9250506020612300858286016122b8565b9150509250929050565b5f5ffd5b5f5ffd5b7f4e487b71000000000000000000000000000000000000000000000000000000005f52604160045260245ffd5b61234882611ef6565b810181811067ffffffffffffffff8211171561236757612366612312565b5b80604052505050565b5f612379611e54565b9050612385828261233f565b919050565b5f67ffffffffffffffff8211156123a4576123a3612312565b5b6123ad82611ef6565b9050602081019050919050565b828183375f83830152505050565b5f6123da6123d58461238a565b612370565b9050828152602081018484840111156123f6576123f561230e565b5b6124018482856123ba565b509392505050565b5f82601f83011261241d5761241c61230a565b5b813561242d8482602086016123c8565b91505092915050565b5f5f5f5f6080858703121561244e5761244d611e5d565b5b5f61245b878288016121ad565b945050602061246c878288016121ad565b935050604061247d878288016120a2565b925050606085013567ffffffffffffffff81111561249e5761249d611e61565b5b6124aa87828801612409565b91505092959194509250565b5f5f604083850312156124cc576124cb611e5d565b5b5f6124d9858286016121ad565b92505060206124ea858286016121ad565b9150509250929050565b5f5ffd5b5f5ffd5b5f60ff82169050919050565b612511816124fc565b811461251b575f5ffd5b50565b5f8135905061252c81612508565b92915050565b5f60808284031215612547576125466124f4565b5b6125516080612370565b90505f612560848285016120a2565b5f8301525060206125738482850161251e565b60208301525060406125878482850161251e565b604083015250606082013567ffffffffffffffff8111156125ab576125aa6124f8565b5b6125b784828501612409565b60608301525092915050565b5f6125ce3683612532565b9050919050565b7f4e487b71000000000000000000000000000000000000000000000000000000005f52602260045260245ffd5b5f600282049050600182168061261957607f821691505b60208210810361262c5761262b6125d5565b5b50919050565b7f4552433732313a20617070726f76616c20746f2063757272656e74206f776e655f8201527f7200000000000000000000000000000000000000000000000000000000000000602082015250565b5f61268c60218361201b565b915061269782612632565b604082019050919050565b5f6020820190508181035f8301526126b981612680565b9050919050565b7f4552433732313a20617070726f76652063616c6c6572206973206e6f7420746f5f8201527f6b656e206f776e6572206f7220617070726f76656420666f7220616c6c000000602082015250565b5f61271a603d8361201b565b9150612725826126c0565b604082019050919050565b5f6020820190508181035f8301526127478161270e565b9050919050565b7f4552433732313a2063616c6c6572206973206e6f7420746f6b656e206f776e655f8201527f72206f7220617070726f76656400000000000000000000000000000000000000602082015250565b5f6127a8602d8361201b565b91506127b38261274e565b604082019050919050565b5f6020820190508181035f8301526127d58161279c565b9050919050565b7f4552433732313a20696e76616c696420746f6b656e20494400000000000000005f82015250565b5f61281060188361201b565b915061281b826127dc565b602082019050919050565b5f6020820190508181035f83015261283d81612804565b9050919050565b7f4552433732313a2061646472657373207a65726f206973206e6f7420612076615f8201527f6c6964206f776e65720000000000000000000000000000000000000000000000602082015250565b5f61289e60298361201b565b91506128a982612844565b604082019050919050565b5f6020820190508181035f8301526128cb81612892565b9050919050565b5f81905092915050565b5f6128e682612011565b6128f081856128d2565b9350612900818560208601611ee8565b80840191505092915050565b5f61291782856128dc565b915061292382846128dc565b91508190509392505050565b612938816124fc565b82525050565b5f6040820190506129515f83018561292f565b61295e602083018461292f565b9392505050565b61296e81612139565b82525050565b5f6040820190506129875f83018561227a565b6129946020830184612965565b9392505050565b7f4552433732313a207472616e736665722066726f6d20696e636f7272656374205f8201527f6f776e6572000000000000000000000000000000000000000000000000000000602082015250565b5f6129f560258361201b565b9150612a008261299b565b604082019050919050565b5f6020820190508181035f830152612a22816129e9565b9050919050565b7f4552433732313a207472616e7366657220746f20746865207a65726f206164645f8201527f7265737300000000000000000000000000000000000000000000000000000000602082015250565b5f612a8360248361201b565b9150612a8e82612a29565b604082019050919050565b5f6020820190508181035f830152612ab081612a77565b9050919050565b7f4552433732313a20617070726f766520746f2063616c6c6572000000000000005f82015250565b5f612aeb60198361201b565b9150612af682612ab7565b602082019050919050565b5f6020820190508181035f830152612b1881612adf565b9050919050565b7f4552433732313a207472616e7366657220746f206e6f6e2045524337323152655f8201527f63656976657220696d706c656d656e7465720000000000000000000000000000602082015250565b5f612b7960328361201b565b9150612b8482612b1f565b604082019050919050565b5f6020820190508181035f830152612ba681612b6d565b9050919050565b7f4e487b71000000000000000000000000000000000000000000000000000000005f52601260045260245ffd5b7f4552433732313a206d696e7420746f20746865207a65726f20616464726573735f82015250565b5f612c0e60208361201b565b9150612c1982612bda565b602082019050919050565b5f6020820190508181035f830152612c3b81612c02565b9050919050565b7f4552433732313a20746f6b656e20616c7265616479206d696e746564000000005f82015250565b5f612c76601c8361201b565b9150612c8182612c42565b602082019050919050565b5f6020820190508181035f830152612ca381612c6a565b9050919050565b612cb381612083565b82525050565b612cc2816124fc565b82525050565b5f82825260208201905092915050565b5f612ce282611ece565b612cec8185612cc8565b9350612cfc818560208601611ee8565b612d0581611ef6565b840191505092915050565b5f608083015f830151612d255f860182612caa565b506020830151612d386020860182612cb9565b506040830151612d4b6040860182612cb9565b5060608301518482036060860152612d638282612cd8565b9150508091505092915050565b5f6040820190508181035f830152612d888185612d10565b9050612d976020830184612111565b9392505050565b5f81519050612dac8161208c565b92915050565b5f60208284031215612dc757612dc6611e5d565b5b5f612dd484828501612d9e565b91505092915050565b7f4e487b71000000000000000000000000000000000000000000000000000000005f52602160045260245ffd5b60208110612e1b57612e1a612ddd565b5b50565b5f819050612e2b82612e0a565b919050565b5f612e3a82612e1e565b9050919050565b612e4a81612e30565b82525050565b5f81519050919050565b5f82825260208201905092915050565b5f819050602082019050919050565b5f612e848383612caa565b60208301905092915050565b5f602082019050919050565b5f612ea682612e50565b612eb08185612e5a565b9350612ebb83612e6a565b805f5b83811015612eeb578151612ed28882612e79565b9750612edd83612e90565b925050600181019050612ebe565b5085935050505092915050565b5f608082019050612f0b5f83018761292f565b612f186020830186612e41565b8181036040830152612f2a8185612e9c565b90508181036060830152612f3e8184612e9c565b905095945050505050565b5f608082019050612f5c5f830187612111565b612f696020830186612111565b612f76604083018561227a565b8181036060830152612f888184611f06565b905095945050505050565b5f81519050612fa181611f89565b92915050565b5f60208284031215612fbc57612fbb611e5d565b5b5f612fc984828501612f93565b91505092915050565b7f4e487b71000000000000000000000000000000000000000000000000000000005f52603260045260245ffd5b5f8160030b9050919050565b61301481612fff565b82525050565b5f60208201905061302d5f83018461300b565b9291505056fea26469706673582212208d5b727ace41b551717af98df67ce6f10db91ac686b39b365613057a72cae4fe64736f6c634300081b0033","linkReferences":{}},"methodIdentifiers":{"approve(address,uint256)":"095ea7b3","balanceOf(address)":"70a08231","getApproved(uint256)":"081812fc","getKey()":"82678dd6","getKeyDebug(bytes32)":"095c8dd3","getKeyWithChallenge((uint256,uint8,uint8,bytes))":"00dd7d24","isApprovedForAll(address,address)":"e985e9c5","mintNft(address,uint256)":"d1194e2b","name()":"06fdde03","ownerOf(uint256)":"6352211e","safeTransferFrom(address,address,uint256)":"42842e0e","safeTransferFrom(address,address,uint256,bytes)":"b88d4fde","setApprovalForAll(address,bool)":"a22cb465","setPrivateKey((uint256,uint8,uint8,bytes))":"8a869843","supportsInterface(bytes4)":"01ffc9a7","symbol()":"95d89b41","tokenURI(uint256)":"c87b56dd","transferFrom(address,address,uint256)":"23b872dd"},"id":0}